:100000000C9435000C945D000C945D000C945D0024
:100010000C945D000C945D000C945D000C945D00EC
:100020000C945D000C945D000C945D000C945D00DC
:100030000C945D000C945D000C945D000C945D00CC
:100040000C948C060C945D000C945D000C945D0087
:100050000C945D000C945D000C945D000C945D00AC
:100060000C945D000C945D00170911241FBECFEFA6
:10007000D4E0DEBFCDBF11E0A0E0B1E0ECEFF7E1EE
:1000800002C005900D92AA33B107D9F724E0AAE384
:10009000B1E001C01D92A233B207E1F710E0C5E361
:1000A000D0E004C02197FE010E94F60BC433D107B3
:1000B000C9F70E9427090C94510B0C9400000F9370
:1000C0001F93CF93DF9320913D012F5F322F377025
:1000D00030933D0120FF02C020E801C020E031FD47
:1000E0002064347009F02062205FFC01EC0123964B
:1000F00000E011E06485662331F070E0C8010E94E1
:10010000C70B6F5F01C060E06187322F369F030E1F
:1001100030E0311D1124311102C0168202C031506D
:100120003683662311F0615061873196CE17DF0761
:1001300009F7DF91CF911F910F91089580E991E028
:100140000895549A0895559A0895EF92FF920F9347
:100150001F93CF93DF93CDB7DEB762970FB6F894B6
:10016000DEBF0FBECDBF7C01DC011C968C917A8373
:1001700069835C834B835E834D830D871E872F8746
:10018000813029F4CE0101960E945F0006C01C86D2
:100190001B861A86198618861F8283E0888B1A8A26
:1001A000198AD701ED91FC910484F585E02DBE01FB
:1001B0006F5F7F4FC701099562960FB6F894DEBF57
:1001C0000FBECDBFDF91CF911F910F91FF90EF90A8
:1001D0000895EF92FF920F931F93CF93DF93CDB7C4
:1001E000DEB762970FB6F894DEBF0FBECDBF7C01BD
:1001F000DC011C968C917A8369835C834B835E83DC
:100200004D830D871E872F87813029F4CE010196FB
:100210000E945F0006C01C861B861A8619861886F7
:100220001F82188A1A8A198AD701ED91FC910484D9
:10023000F585E02DBE016F5F7F4FC701099562967E
:100240000FB6F894DEBF0FBECDBFDF91CF911F91E7
:100250000F91FF90EF90089580E090E00895FC01E9
:100260008585968508950F931F93CF93DF9300D0D4
:100270001F92CDB7DEB7AB0119821A821B82DC0157
:10028000ED91FC910190F081E02D00E010E020E084
:10029000BE016F5F7F4F09950F900F900F90DF9118
:1002A000CF911F910F910895789484B5826084BD99
:1002B00084B5816084BD85B5826085BD85B581606A
:1002C00085BDEEE6F0E0808181608083E1E8F0E0CA
:1002D0001082808182608083808181608083E0E8F9
:1002E000F0E0808181608083E1EBF0E080818460D8
:1002F0008083E0EBF0E0808181608083EAE7F0E0DA
:10030000808184608083808182608083808181603D
:1003100080838081806880831092C10008953FB7F8
:10032000F8948091430190914401A0914501B091CE
:10033000460126B5A89B05C02F3F19F00196A11DC7
:10034000B11D3FBFBA2FA92F982F8827820F911D6B
:10035000A11DB11DBC01CD0142E0660F771F881FB2
:10036000991F4A95D1F70895CF92DF92EF92FF92AD
:10037000CF93DF936B017C010E948F01EB01C114CD
:10038000D104E104F10479F00E948F016C1B7D0B14
:10039000683E7340A0F381E0C81AD108E108F10873
:1003A000C851DC4FECCFDF91CF91FF90EF90DF9001
:1003B000CF9008954F925F926F927F928F92AF92FB
:1003C000BF92CF92DF92EF920F931F93CF93DF9361
:1003D0003C01EB010E948F01F30127853089621BEC
:1003E000730B6A307105B0F3F894E881F9817BB141
:1003F00070616BB16F7E6BB9CA848F812C2D281B05
:10040000822F2F83BF844A805B801D850C85DE840C
:100410001F5F0F5FD3949E813885A984EB8441814F
:10042000D20120E0C32F522F322F318144278894EC
:100430003111380F08F43FEF8195889410FD430F78
:100440004795889411FD430F4795889412FD430FFB
:100450004795889413FD430F4795889414FD430FE7
:100460004795889415FD430F4795889416FD430FD3
:100470004795889417FD430F47958894232F1111B2
:10048000242F8C0D422F002C7BB900C000C047FFE9
:100490006BB930812227889400C0002C6BB93111D0
:1004A000390F00C0002C7BB900C000C046FF6BB9FB
:1004B00008F43FEF9195889400C0002C6BB900FDC3
:1004C000230F00C0002C7BB900C000C045FF6BB9F2
:1004D0002795889401FD230F00C0002C6BB9279548
:1004E000889400C0002C7BB900C000C044FF6BB9E9
:1004F00002FD230F2795889400C0002C6BB903FDE3
:10050000230F00C0002C7BB900C000C043FF6BB9B3
:100510002795889404FD230F00C0002C6BB9279504
:10052000889400C0002C7BB900C000C042FF6BB9AA
:1005300005FD230F2795889400C0002C6BB906FD9C
:10054000230F00C0002C7BB900C000C041FF6BB975
:100550002795889407FD230F00C0002C6BB92795C1
:10056000889400C0002C7BB900C000C040FF6BB96C
:10057000432F0111422F9A0D00C0002C6BB900C00F
:1005800000C0002C7BB900C000C047FF6BB93281AE
:100590002227889400C0002C6BB931113C0F00C099
:1005A000002C7BB900C000C046FF6BB908F43FEFD8
:1005B000EB0DF11D00C0002C6BB9D0FC230F00C067
:1005C000002C7BB900C000C045FF6BB9279588940B
:1005D000D1FC230F00C0002C6BB92795889400C074
:1005E000002C7BB900C000C044FF6BB9D2FC230FC4
:1005F0002795889400C0002C6BB9D3FC230F00C052
:10060000002C7BB900C000C043FF6BB927958894CC
:10061000D4FC230F00C0002C6BB92795889400C030
:10062000002C7BB900C000C042FF6BB9D5FC230F82
:100630002795889400C0002C6BB9D6FC230F00C00E
:10064000002C7BB900C000C041FF6BB9279588948E
:10065000D7FC230F00C0002C6BB92795889400C0ED
:10066000002C7BB900C000C040FF6BB9432FD110F4
:10067000422FC19500C0002C6BB9CE0D00C000C048
:100680007BB900C000C047FF6BB931812227889435
:1006900000C0002C6BB93111380F00C0002C7BB9A1
:1006A00000C000C046FF6BB908F43FEF8195889405
:1006B00000C0002C6BB910FD230F00C0002C7BB9CB
:1006C00000C000C045FF6BB92795889411FD230F2A
:1006D00000C0002C6BB92795889400C0002C7BB912
:1006E00000C000C044FF6BB912FD230F279588940A
:1006F00000C0002C6BB913FD230F00C0002C7BB988
:1007000000C000C043FF6BB92795889414FD230FE8
:1007100000C0002C6BB92795889400C0002C7BB9D1
:1007200000C000C042FF6BB915FD230F27958894C8
:1007300000C0002C6BB916FD230F00C0002C7BB944
:1007400000C000C041FF6BB92795889417FD230FA7
:1007500000C0002C6BB92795889400C0002C7BB991
:1007600000C000C040FF6BB9432F1111422F8C0D08
:1007700000C0002C6BB9119709F086CE20EE31E055
:10078000D2010E94DB0BDC01CB01F4E0B695A7950A
:1007900097958795FA95D1F720E030E0B901EAE91D
:1007A0004E9E040C611D5E9E600D711D1124650D31
:1007B000711D860F971FA11DB11D893E43E094074F
:1007C000A105B10508F434C0885E9340A109B109C0
:1007D00042E0B695A795979587954A95D1F747E05A
:1007E000849F080E211D949F200D311D1124290F77
:1007F000311D60913C0170E0860F971F820F931F9F
:1008000040913F015091400160914101709142013E
:10081000292F3327420F531F611D711D40933F0144
:1008200050934001609341017093420180933C01D9
:1008300078940E948F01F301708B6787DF91CF91CD
:100840001F910F91EF90DF90CF90BF90AF908F905E
:100850007F906F905F904F9008954F925F926F924C
:100860007F928F92AF92BF92CF92DF92EF920F93CF
:100870001F93CF93DF933C01EB010E948F01F301A3
:1008800027853089621B730B6A307105B0F3F894C9
:10089000E881F9817BB170626BB16F7D6BB9CA84FD
:1008A0008F812C2D281B822F2F83BF844A805B8051
:1008B0001D850C85DE841F5F0F5FD3949E81388574
:1008C000A984EB844181D20120E0C32F522F322F23
:1008D0003181442788943111380F08F43FEF819516
:1008E000889410FD430F4795889411FD430F479559
:1008F000889412FD430F4795889413FD430F479545
:10090000889414FD430F4795889415FD430F479530
:10091000889416FD430F4795889417FD430F47951C
:100920008894232F1111242F8C0D422F002C7BB97A
:1009300000C000C047FF6BB930812227889400C0F7
:10094000002C6BB93111390F00C0002C7BB900C0ED
:1009500000C046FF6BB908F43FEF9195889400C042
:10096000002C6BB900FD230F00C0002C7BB900C028
:1009700000C045FF6BB92795889401FD230F00C087
:10098000002C6BB92795889400C0002C7BB900C05F
:1009900000C044FF6BB902FD230F2795889400C067
:1009A000002C6BB903FD230F00C0002C7BB900C0E5
:1009B00000C043FF6BB92795889404FD230F00C046
:1009C000002C6BB92795889400C0002C7BB900C01F
:1009D00000C042FF6BB905FD230F2795889400C026
:1009E000002C6BB906FD230F00C0002C7BB900C0A2
:1009F00000C041FF6BB92795889407FD230F00C005
:100A0000002C6BB92795889400C0002C7BB900C0DE
:100A100000C040FF6BB9432F0111422F9A0D00C057
:100A2000002C6BB900C000C0002C7BB900C000C016
:100A300047FF6BB932812227889400C0002C6BB924
:100A400031113C0F00C0002C7BB900C000C046FF34
:100A50006BB908F43FEFEB0DF11D00C0002C6BB932
:100A6000D0FC230F00C0002C7BB900C000C045FFA4
:100A70006BB927958894D1FC230F00C0002C6BB96B
:100A80002795889400C0002C7BB900C000C044FFAB
:100A90006BB9D2FC230F2795889400C0002C6BB94A
:100AA000D3FC230F00C0002C7BB900C000C043FF63
:100AB0006BB927958894D4FC230F00C0002C6BB928
:100AC0002795889400C0002C7BB900C000C042FF6D
:100AD0006BB9D5FC230F2795889400C0002C6BB907
:100AE000D6FC230F00C0002C7BB900C000C041FF22
:100AF0006BB927958894D7FC230F00C0002C6BB9E5
:100B00002795889400C0002C7BB900C000C040FF2E
:100B10006BB9432FD110422FC19500C0002C6BB987
:100B2000CE0D00C000C07BB900C000C047FF6BB94C
:100B300031812227889400C0002C6BB93111380F05
:100B400000C0002C7BB900C000C046FF6BB908F4A0
:100B50003FEF8195889400C0002C6BB910FD230FE6
:100B600000C0002C7BB900C000C045FF6BB92795C1
:100B7000889411FD230F00C0002C6BB92795889431
:100B800000C0002C7BB900C000C044FF6BB912FD4F
:100B9000230F2795889400C0002C6BB913FD230FF9
:100BA00000C0002C7BB900C000C043FF6BB9279583
:100BB000889414FD230F00C0002C6BB927958894EE
:100BC00000C0002C7BB900C000C042FF6BB915FD0E
:100BD000230F2795889400C0002C6BB916FD230FB6
:100BE00000C0002C7BB900C000C041FF6BB9279545
:100BF000889417FD230F00C0002C6BB927958894AB
:100C000000C0002C7BB900C000C040FF6BB9432F6F
:100C10001111422F8C0D00C0002C6BB9119709F0F7
:100C200086CE20EE31E0D2010E94DB0BDC01CB014D
:100C3000F4E0B695A79597958795FA95D1F720E0BA
:100C400030E0B901EAE94E9E040C611D5E9E600D24
:100C5000711D1124650D711D860F971FA11DB11DFA
:100C6000893E43E09407A105B10508F434C0885ECD
:100C70009340A109B10942E0B695A795979587954C
:100C80004A95D1F747E0849F080E211D949F200DBF
:100C9000311D1124290F311D60913C0170E0860F38
:100CA000971F820F931F40913F0150914001609127
:100CB000410170914201292F3327420F531F611DBB
:100CC000711D40933F015093400160934101709327
:100CD000420180933C0178940E948F01F301708B54
:100CE0006787DF91CF911F910F91EF90DF90CF90A9
:100CF000BF90AF908F907F906F905F904F900895CE
:100D00002FB7F89460913F017091400180914101AB
:100D1000909142012FBF08951F920F920FB60F922C
:100D200011242F933F938F939F93AF93BF93809101
:100D30003F0190914001A0914101B0914201309159
:100D40003E0123E0230F2D3720F40196A11DB11D94
:100D500005C026E8230F0296A11DB11D20933E0178
:100D600080933F0190934001A0934101B0934201D1
:100D70008091430190914401A0914501B0914601B9
:100D80000196A11DB11D8093430190934401A0934E
:100D90004501B0934601BF91AF919F918F913F91D3
:100DA0002F910F900FBE0F901F901895FC018AE0B5
:100DB00091E091838083138212828FEF86838783F1
:100DC000808781878287838781E08487168615865E
:100DD000158214828091470190914801892B21F45A
:100DE000F0934801E0934701A0913A01B0913B0193
:100DF000109721F01596FC93EE931497F0933B0116
:100E0000E0933A010895409100015091010125E0DD
:100E100038E0429FC001439F900D529F900D1124D6
:100E2000875E994C9093010180930001890F08958A
:100E300020E330E042E054E0FC01DA0120FF05C08D
:100E400002C001900D9201900D922250D0F73040D7
:100E5000C0F7CA0108950F931F93CF93DF93EC015E
:100E60008B01E881F9810480F581E02D09951B83D0
:100E70000A838EE490E09E878D87E881F981028461
:100E8000F385E02DCE010995009701F19C0140E02A
:100E900050E060E472E48FE090E00E94540B809197
:100EA000F4039091F503A091F603B091F703821734
:100EB0009307A407B50710F4DA01C9018093F4037E
:100EC0009093F503A093F603B093F703CE01DF915F
:100ED000CF911F910F9108955F926F927F928F92A1
:100EE0009F92AF92BF92CF92DF92EF92FF920F93B9
:100EF0001F93CF93DF933C01FB01822EA32EC42FBF
:100F00000617170750F4CE2DE42EAD2CD32E8C2CC3
:100F1000C22E8F2FF801062F182F912C8C2D90E0C8
:100F2000881999099695982F882797958795B12CB8
:100F30002D2D30E02A193B093695322F222737957F
:100F40002795D0E0F12CEC1AFD0AF694FE2CEE2445
:100F5000F794E794A8014E1B5F0B19F0542E452F10
:100F600003C05524539440E0652D742F0E94C70B95
:100F70006B01C901652D742F0E94C70B9B01C7012E
:100F8000652D742F0E94C70BCC0CDD1C220F331F64
:100F9000660F771F982C8824BA2CAA24DC2FCC2724
:100FA000DF01AA0FBB1FAE0FBF1FA60DB71D0E1787
:100FB0001F0780F09C921196BC9211971296DC93B9
:100FC00012978C0C9D1CA20EB31EC60FD71F319614
:100FD0001396EDCFDF91CF911F910F91FF90EF907E
:100FE000DF90CF90BF90AF909F908F907F906F9049
:100FF0005F90089508953F924F925F926F927F9213
:101000008F929F92AF92BF92CF92DF92EF92FF9218
:101010000F931F93CF93DF9300D01F92CDB7DEB70E
:10102000D82E8091F4039091F503A091F603B0912E
:10103000F703892B8A2B8B2BE9F00E948F010091FB
:10104000FE031091FF032091000430910104DC01A4
:10105000CB01801B910BA20BB30B0091F4031091F9
:10106000F5032091F6033091F70380179107A2074B
:10107000B307B8F20E948F016093FE037093FF03E1
:101080008093000490930104E091FC03F091FD0330
:10109000309759F04091F8035091F9036091FA03A9
:1010A0007091FB038D2D0995D82EE0904701F090AB
:1010B00048014D2C512C612C712CE114F10409F4E0
:1010C0005EC0D7011C96CC901C978091F203909142
:1010D000F3038436910510F41C961C92D701ED9110
:1010E000FC918280938019821A821B82D11014C0D5
:1010F00009811A812B81F7014585568562817381AB
:10110000C701F4010995D7011C96CC921C9714963F
:10111000ED90FC901597D1CFF70136968E010F5FB9
:101120001F4F5701B9E0AB0EB11C2191222309F1E9
:1011300032803320F1F0822F90E0A0E0B0E09C01FB
:10114000AD012F5F3F4F4F4F5F4FC301B2010E9470
:10115000B70B9B01AC01832D90E0A0E0B0E0BC0197
:10116000CD016F5F7F4F8F4F9F4F0E94B70BD8010C
:101170008C930F5F1F4FEA15FB05B9F6B9CF80912D
:10118000EF039091F0038C010F5F1F4F1093F0035A
:101190000093EF034997B4F10E948006C090EB03DF
:1011A000D090EC03E090ED03F090EE039B01AC01D6
:1011B0002C193D094E095F0921F421E030E040E09F
:1011C00050E088EE93E0089FB001099F700D189FD2
:1011D000700D1124072E000C880B990B0E94860BB2
:1011E0003093F3032093F2031092F0031092EF0375
:1011F0000E9480066093EB037093EC038093ED03F1
:101200009093EE030F900F900F90DF91CF911F916D
:101210000F91FF90EF90DF90CF90BF90AF909F9095
:101220008F907F906F905F904F903F900895E1EF87
:10123000F3E08FEF808312821182148613868FEF82
:101240009FEFDC0187839087A187B2870895CF93B2
:10125000DF93CDB7DEB7E0970FB6F894DEBF0FBED1
:10126000CDBF0E94540168EB7BE080E090E00E94DB
:10127000B40180915A01811111C089E491E00E946A
:10128000D60610925901109258018AE191E090938C
:101290004A018093490181E080935A016BE771E034
:1012A00089E491E00E942B07FC018FEF868380EB9D
:1012B000878380EF808780917301811111C082E65E
:1012C00091E00E94D60610927201109271018CE298
:1012D00091E0909363018093620181E080937301B8
:1012E00065E672E082E691E00E942B07FC018FEF39
:1012F000868380EB878380EF808788EC8093F1037F
:10130000CC24CA94D12CE12C08E010E020E030E09D
:1013100040E060E070E0CE0101965C010E946C0745
:1013200075EAD72E0FE010E02FEF30E040E068E0E4
:1013300070E0C5010E946C0792E0A91694E0B9061E
:1013400029F020F0C5010E94180714C09E012F5CEF
:101350003F4F80E390E042E354E0F901DA0180FF7F
:1013600005C002C002900E9202900E928250D0F7F9
:101370009040C0F743E0242E312C56E2452E512CEC
:1013800060E0662E60E0762E0E94FA0A209100014D
:1013900030910101620F731F70930101609300018E
:1013A0000FE413E0E12CF12C5701E1E0AE22BB2465
:1013B0006801F7E2CF0ED11C48010E94030740E10B
:1013C000849F90011124F4012081231B08F420E064
:1013D00021934F01CE16DF0681F7F801B596808183
:1013E000229190E0820F911D820F911DB1010E9408
:1013F000C70B62830E171F0791F70E9403078436FD
:10140000C8F40E940307982E0E940307FFE58F9FF0
:10141000C001112427E0929EF0011124EF2FFF0F4D
:10142000FF0BE00FF11F30EA390F2081230F08F482
:101430002FEF208380E090E045E74E9D40014F9DD7
:10144000900C1124F80161918F0120EF629F060E2C
:1014500060E0611D1124762F72957F706F70E72F09
:10146000EE0FE70FF0E0EE5FFB4FA081518142816C
:10147000662309F42DC07F3011F0339602C0E2E0FC
:10148000F4E06295607FB62FB09530817A2F2B2FD4
:10149000729F070E70E0711DA72F732F769F070EA6
:1014A00070E0711DA70F7181529F050E50E0511D14
:1014B000769F070E70E0711D570F7281429F040ED8
:1014C00040E0411D769F070E70E0711D470F11240B
:1014D000A114B10421F4F201E81BF90B01C0FC01D5
:1014E000BF01660F771FE60FF71FE80DF91DE558DE
:1014F000FE4FA0835183428301968732910509F004
:10150000A1CF4FEFE41AF40A860174E0E716F10464
:1015100009F04ACF8091F1030E94FB070E948006E8
:101520006B017C0161E070E080E090E00E94B4011A
:101530008091F1030E94FB070E948006DC01CB0131
:101540008C199D09AE09BF094997A105B10550F352
:101550006114710409F418CF0E94000015CF8F9216
:101560009F92AF92BF92CF92DF92EF92FF92CF9372
:10157000DF93EC01688179818A819B816115710516
:101580008105910521F464E279ED8BE597E02DE189
:1015900033EF41E050E00E94540B49015A019B0196
:1015A000AC01A7EAB1E40E94730B6B017C01ACEEC5
:1015B000B4EFA50194010E94810BDC01CB018C0DDD
:1015C0009D1DAE1DBF1DB7FF03C00197A109B04807
:1015D00088839983AA83BB83BC01CD019F77DF9168
:1015E000CF91FF90EF90DF90CF90BF90AF909F9002
:1015F0008F9008958F929F92AF92BF92CF92DF9279
:10160000EF92FF92609102017091030180910401B9
:1016100090910501611571058105910521F464E240
:1016200079ED8BE597E02DE133EF41E050E00E944A
:10163000540B49015A019B01AC01A7EAB1E40E9495
:10164000730B6B017C01ACEEB4EFA50194010E9419
:10165000810BDC01CB018C0D9D1DAE1DBF1DB7FFA5
:1016600003C00197A109B048809302019093030140
:10167000A0930401B0930501BC01CD019F77FF90B9
:10168000EF90DF90CF90BF90AF909F908F90089594
:10169000609302017093030180930401909305010C
:1016A0000895F8940C94FC0B052E97FB1EF40094FF
:1016B0000E946B0B57FD07D00E94860B07FC03D0DE
:1016C0004EF40C946B0B50954095309521953F4FFF
:1016D0004F4F5F4F089590958095709561957F4F1E
:1016E0008F4F9F4F08950E94A80BA59F900DB49F08
:1016F000900DA49F800D911D11240895B7FF0C94A7
:10170000730B0E94730B821B930B0895A1E21A2E98
:10171000AA1BBB1BFD010DC0AA1FBB1FEE1FFF1F95
:10172000A217B307E407F50720F0A21BB30BE40BE5
:10173000F50B661F771F881F991F1A9469F760952C
:101740007095809590959B01AC01BD01CF010895E6
:10175000A29FB001B39FC001A39F700D811D1124F2
:10176000911DB29F700D811D1124911D0895DB0103
:101770008F939F930E94730BBF91AF91A29F800D97
:10178000911DA39F900DB29F900D1124089597FB7A
:10179000072E16F4009407D077FD09D00E94E20BC3
:1017A00007FC05D03EF4909581959F4F0895709564
:1017B00061957F4F08950E94A80BB7FF0895821B83
:1017C000930B0895AA1BBB1B51E107C0AA1FBB1FA7
:1017D000A617B70710F0A61BB70B881F991F5A95BD
:1017E000A9F780959095BC01CD010895EE0FFF1FDC
:0C17F0000590F491E02D0994F894FFCFCF
:1017FC0039050100000000000000FA07FA07FA079B
:10180C0033012F012C0100000000E900A500A1000C
:10181C0033012F019E00DA0100000000E900A50051
:0A182C00A30033012F019E002D04DC
:00000001FF
